:020000003628A0
:10000800FF00030E8301A4000A08A3008A018B1CC9
:10001800102807148B168B100B1D1C2820082D3A4E
:10002800031D19288701A0018B12A00A07100B11C4
:0E00380023088A00240E8300FF0E7F0E0900AD
:0E0046008312031322088A002108820008009A
:1000540023208A110A128000840AA10A0319A20A21
:08006400F003031D2A28080027
:10006C0083120313A0018316031788018901FF3043
:10007C008600031387018312071047308316810013
:08008C008B170B1648284928C8
:04400E00F22F000786
:00000001FF
