:020000001628C0
:0E0006008312031335088A00340882000800B4
:1000140003208A110A128000840AB40A0319B50A5B
:08002400F003031D0A28080087
:10002C003F3083120313A000A1010630A200A301EC
:10003C005B30A400A5014F30A600A7016630A800D4
:10004C00A9016D30AA00AB017C30AC00AD010730CA
:10005C00AE00AF017F30B000B1016F30B200B30120
:10006C008316870183128701831688018312880106
:10007C003430FC00F130FD00FD0B4228FC0B422813
:10008C0000000000B801B9013808F0003908F1008F
:10009C00F00DF10D70107008203E840000088700F0
:1000AC00B601B70180303706F00080307002031DB6
:1000BC0061280A303602031892283608F0003708F7
:1000CC00F100F00DF10D70107008203E8400000856
:1000DC0088003430FC00F130FD00FD0B7328FC0B64
:1000EC0073280000000000303706031D7F280930FC
:1000FC003606031D8428B80A0319B90A00303906DC
:10010C00031D8A280A303806031D8E28B801B90150
:0C011C00B60A0319B70A58284A2893288D
:04400E00F22F000786
:00000001FF
