:02000000D12805
:0E0006008312031323088A00220882000800D8
:1000140083120313FB01FA01F9018030F800F10C9B
:10002400F00C031C1E287408F90775080318750FD3
:10003400FA070318FB0A0310F01F26287408FA07AE
:1000440075080318750FFB07FB0CFA0CF90CF80C78
:10005400031C11287B08F3007A08F2007908F100E8
:060064007808F00008001E
:0C006A008312031395011712971208006F
:10007600831603138710831212150C309D04080093
:10008600831603130711831212150C309704080008
:1000960003208A110A128000840AA20A0319A30AFD
:0800A600F003031D4B280800C4
:0C00AE00831203139B011D129D12080019
:1000BA00831603131208013EF000F1010318F10A36
:1000CA0083122408F400F5010A200630F2007008B1
:1000DA00F4007108F500720803197828F50CF40C7D
:1000EA00F513FF3E71280430F1007408F00071081E
:1000FA0003198328F00D7010FF3E7D2830307005FB
:10010A00F3007408F0007508F100F10CF00CF1131B
:10011A00F10CF00CF113700895000F309705730875
:04012A00970408002E
:10012E00831603131208013EF000F1010318F10AC1
:10013E0083122408F400F5010A200630F20070083C
:10014E00F4007108F50072080319B228F50CF40CCE
:10015E00F513FF3EAB280430F1007408F00071086F
:10016E000319BD28F00D7010FF3EB7283030700512
:10017E00F3007408F0007508F100F10CF00CF113A7
:10018E00F10CF00CF11370089B000F309D057308F5
:04019E009D040800B4
:1001A200803083120313A0008030A100831603174E
:1001B20089018801FF30860003138701831212141C
:1001C2009214F93083169200352043202108A400AE
:1001D2005D200630FB001330FC00AD30FD00FD0B4E
:1001E200F028FC0BF028FB0BF02800000000121492
:1001F20092147C308316920057203B202008A400E2
:100202009720061816298230FC00DD30FD00FD0B18
:100212000829FC0B08290000000010302107F0001B
:100222007008A1007008A4005D2086182A29823077
:10023200FC00DD30FD00FD0B1C29FC0B1C2900001D
:10024200000010302102F0007008A1007008A40024
:100252005D2006193E298230FC00DD30FD00FD0BD9
:100262003029FC0B30290000000010302007F0007C
:100272007008A0007008A4009720861952298230C5
:10028200FC00DD30FD00FD0B4429FC0B442900007D
:10029200000010302002F0007008A0007008A400D6
:0602A2005D200229532932
:04400E00F22F000786
:00000001FF
