:02000000632873
:10000800FF00030E8301AA000A08AB008A01A60AB2
:100018000319A70A373081000B112B088A002A0E12
:080028008300FF0E7F0E0900AA
:1000300083120313F8010830FC00700DF80D7408EA
:10004000F80203182528F8070310F00DFC0B1D28F3
:020050000800A6
:0E0052008312031329088A0028088200080080
:1000600029208A110A128000840AA80A0319A90A01
:08007000F003031D3028080015
:1000780083120313AD012C08093C03185E280A30CB
:10008800F4002C08F00018207008AD007008AD00CE
:10009800AD0D2D10AD0D2D10AD0D2D10AD0D2D107C
:1000A8000A30F4002C08F00018207808F0007008D6
:0E00B800AD0460282C08AD002D08F0000800F3
:1000C60083120313A001A101A201A301A401A501AA
:1000D600A601A70183160317890188018601031368
:1000E60087018801831286018701880183168112A0
:1000F60081110110811001118B178B163730831275
:10010600810080302706F0008030133A7002031D0C
:100116008E2888302602031C9A28A00A0319A10AF1
:100126002008AC003C2070088800A601A70180309A
:100136002106F00080307002031DA3283B30200208
:10014600031CAF28A20A0319A30A2208AC003C200C
:1001560070088700A001A10180302306F0008030DE
:100166007002031DB8283B302202031CC228A40AD1
:100176000319A50A2408AC003C20700886008428D0
:02018600C3288C
:04400E00F22F000786
:00000001FF
