:020000002B28AB
:10000800FF00030E8301A4000A08A5008A01A00AC4
:100018000319A10A063081000B1125088A00240E55
:080028008300FF0E7F0E0900AA
:0E0030008312031323088A00220882000800AE
:10003E0018208A110A128000840AA20A0319A30A40
:08004E00F003031D1F28080048
:1000560083120313A001A1018316031788018901E6
:100066000313051683128501831687018312870100
:100076002030831681008B178B1606308312810081
:1000860000302106031D492802302006031D4E2894
:0A0096008709A001A10143284F28AB
:04400E00F22F000786
:00000001FF
