:020000001628C0
:0E0006008312031321088A00200882000800DC
:1000140003208A110A128000840AA00A0319A10A83
:08002400F003031D0A28080087
:10002C0083160317890188018601FF30831203139D
:10003C0086000230FB000430FC00BA30FD00FD0BE2
:10004C002528FC0B2528FB0B252800008601C03039
:10005C0086000608F000F00CF013700886003430AF
:10006C00FC00F130FD00FD0B3928FC0B3928000099
:10007C00000003300602031C49280608F000F00DAE
:0A008C007010700886002F284A2823
:04400E00F22F000786
:00000001FF
