:020000001628C0
:0E0006008312031321088A00200882000800DC
:1000140003208A110A128000840AA00A0319A10A83
:08002400F003031D0A28080087
:10002C008316031386010317890188011430831288
:10003C00031386008230FC00DD30FD00FD0B24280C
:10004C00FC0B2428000000000608F000F00CF01354
:10005C00700886008230FC00DD30FD00FD0B34287A
:10006C00FC0B3428000000000608053C031C4A2841
:10007C00023086008230FC00DD30FD00FD0B442890
:10008C00FC0B4428000000008030013AF000803066
:10009C007002031D53280608023C031C61284130E2
:1000AC0086008230FC00DD30FD00FD0B5B28FC0B74
:1000BC005B28000000000608413C031C7128A0309E
:1000CC0086008230FC00DD30FD00FD0B6B28FC0B44
:0A00DC006B28000000002A2872289B
:04400E00F22F000786
:00000001FF
