:020000001628C0
:0E0006008312031321088A00200882000800DC
:1000140003208A110A128000840AA00A0319A10A83
:08002400F003031D0A28080087
:10002C0083160313860103178901880183120313B6
:10003C0086013430FC00F130FD00FD0B2328FC0B55
:10004C0023280000000086140614803006020318D2
:10005C003E280608F000F00D7010700886004E3037
:10006C00FC00EB30FD00FD0B3928FC0B39282B284C
:10007C000608013C031851280608F000F00CF01398
:10008C00700886004E30FC00EB30FD00FD0B4C2858
:0A009C00FC0B4C283E2829285228AE
:04400E00F22F000786
:00000001FF
