:02000000662870
:10000800FF00030E8301A5000A08A4008A01A20AC2
:100018000319A30A2208A6003F20700887008B1046
:0E00280024088A00250E8300FF0E7F0E0900BB
:1000360083120313F8010830FC00700DF80D7408E4
:10004600F80203182828F8070310F00DFC0B2028E7
:020056000800A0
:0E0058008312031321088A002008820008008A
:100066002C208A110A128000840AA00A0319A10A08
:08007600F003031D332808000C
:10007E0083120313A7012608093C031861280A30CE
:10008E00F4002608F0001B207008A7007008A700D7
:10009E00A70D2710A70D2710A70D2710A70D2710A6
:1000AE000A30F4002608F0001B207808F0007008D3
:0E00BE00A70463282608A7002708F000080002
:1000CC00831603178901880103138701FF3086000B
:0C00DC008B170B16011783128701732885
:04400E00F22F000786
:00000001FF
