:020000001628C0
:0E0006008312031323088A00220882000800D8
:1000140003208A110A128000840AA20A0319A30A7F
:08002400F003031D0A28080087
:10002C0083160317890188018601FF30831203139D
:10003C0086000230FB000430FC00BA30FD00FD0BE2
:10004C002528FC0B2528FB0B252800008601A00188
:10005C00A10180302106F00080307002031D382889
:10006C0005302002031867285B28FF308600023019
:10007C00FB000430FC00BA30FD00FD0B4328FC0BE8
:10008C004328FB0B43280000632886010330FB0048
:10009C008A30FC005530FD00FD0B5228FC0B522819
:1000AC00FB0B52280000000063280608003A0319D5
:1000BC003B280608FF3A03194B28A00A0319A10A8A
:1000CC002F28AA3086008230FC00DD30FD00FD0BAD
:1000DC006D28FC0B6D280000000086096928752826
:04400E00F22F000786
:00000001FF
