:02000000752861
:10000800FF00030E8301A7000A08A6008A01A40ABC
:100018000319A50A00302506031D14287D3024067F
:10002800031D2028A00A0319A10A2008A8004E20B1
:1000380070088700A401A5010B11833081002608F0
:0C0048008A00270E8300FF0E7F0E0900C7
:1000540083120313F8010830FC00700DF80D7408C6
:10006400F80203183728F8070310F00DFC0B2F28AB
:02007400080082
:0E0076008312031323088A0022088200080068
:100084003B208A110A128000840AA20A0319A30AD7
:08009400F003031D42280800DF
:10009C0083120313A9012808093C031870280A309D
:1000AC00F4002808F0002A207008A9007008A900A4
:1000BC00A90D2910A90D2910A90D2910A90D291078
:1000CC000A30F4002808F0002A207808F0007008A4
:0E00DC00A90472282808A9002908F0000800CD
:1000EA0083120313A001A1018316870181128111D2
:1000FA000110811401158B178B1483308312810030
:02010A00852846
:04400E00F22F000786
:00000001FF
