:020000003628A0
:10000800FF00030E8301A2000A08A3008A010B1E49
:100018001C288B1C1C2807148B108230FC00DD3038
:10002800FD00FD0B1528FC0B15280000000007102B
:0E00380023088A00220E8300FF0E7F0E0900AF
:0E0046008312031321088A002008820008009C
:1000540023208A110A128000840AA00A0319A10A23
:08006400F003031D2A28080027
:10006C0083160317890188010313071083120710E5
:10007C008B170B168316011783128701442845280A
:04400E00F22F000786
:00000001FF
