:020000001628C0
:0E0006008312031323088A00220882000800D8
:1000140003208A110A128000840AA20A0319A30A7F
:08002400F003031D0A28080087
:10002C00013083120313A000A1018316860103176C
:10003C008901880130308312031386008230FC0062
:10004C00DD30FD00FD0B2828FC0B282800000000EB
:10005C0000302106031D342801302006031D4C28D6
:10006C000608F000F00CF013700886008230FC00DB
:10007C00DD30FD00FD0B4028FC0B4028000000008B
:10008C000608033A031D4C28A001A10100302106EB
:10009C00031D522800302006031D6C280608F000B2
:1000AC00F00D7010700886008230FC00DD30FD0011
:1000BC00FD0B5E28FC0B5E28000000000608C03A11
:1000CC00031D6C280130A0000030A1002E286D28E3
:04400E00F22F000786
:00000001FF
