:020000001628C0
:0E0006008312031321088A00200882000800DC
:1000140003208A110A128000840AA00A0319A10A83
:08002400F003031D0A28080087
:10002C0083160313860103178801890183120313B6
:10003C0086010230FB000430FC00BA30FD00FD0BE1
:10004C002528FC0B2528FB0B25280000FF30060279
:10005C0003183F28060AF000700886008230FC0066
:10006C00DD30FD00FD0B3828FC0B382800000000AB
:10007C002C280608003C031852280603F0007008D0
:10008C0086008230FC00DD30FD00FD0B4B28FC0BA4
:0C009C004B28000000003F282C285328AF
:04400E00F22F000786
:00000001FF
