:02000000422894
:0E0006008312031321088A00200882000800DC
:100014003F3083120313A2000630A3005B30A40018
:100024004F30A5006630A6006D30A7007D30A800D3
:100034007F30A9006F30AA007730AB007C30AC0071
:100044003930AD005E30AE007930AF007130B000B1
:10005400B1010108223E8400000886000108103A1C
:08006400031D3528810108008D
:10006C0003208A110A128000840AA00A0319A10A2B
:08007C00F003031D3628080003
:1000840083120313850186018316051686017030D9
:100094008F00811601168111011081100111831244
:0800A40081010A2053285528B0
:04400E00F22F000786
:00000001FF
