:020000001628C0
:0E000600831203132B088A002A0882000800C8
:1000140003208A110A128000840AAA0A0319AB0A6F
:08002400F003031D0A28080087
:10002C003F3083120313A0000630A1005B30A20006
:10003C004F30A3006630A4006D30A5007C30A600C4
:10004C000730A7007F30A8006F30A900AC01AD01CC
:10005C00831687013F308312870080302D06F00015
:10006C0080307002031D3C2800302C02031C4A28EF
:10007C008030F00080302D067002031D47282C08BC
:10008C00093C031C4A284C28AC01AD012C08203E2D
:10009C008400000887008230FC00DD30FD00FD0B81
:1000AC005528FC0B552800000000AC0A0319AD0ABA
:0400BC0033285F285E
:04400E00F22F000786
:00000001FF
