:02000000442892
:0E0006008312031324088A00230882000800D6
:100014000E3083120313FD00FD0B0E2800000800B0
:10002400C330831203139F05C0309F002508F000DE
:10003400F00D7010F00D701070089F042009F0008E
:10004400700883169F059F1783121F140A209F149C
:100054009F1C2E2800002A281F101E08F100F00102
:0C00640083161E08F0040030F1040800B0
:1000700003208A110A128000840AA30A0319A40A21
:08008000F003031D38280800FD
:10008800C22004308316031788008901FF30031348
:1000980085008701831286010230A50012207008AE
:1000A8008312A1007108A20080307106F20080302E
:1000B8007202031D612800307002031C6F28803013
:1000C800F000803022067002031D6C282108333CA2
:1000D800031C6F28870180302206F00080307002F0
:1000E800031D782833302102031C8728803022061C
:1000F800F00080307002031D8328FF3021020318AE
:1001080087280F30870080302206F0008030700288
:10011800031D9028FF302102031CA02880302206EE
:10012800F0008030013A7002031D9C28FF30210244
:100138000318A0283F30870080302206F000803066
:10014800013A7002031DAA28FF302102031CBA28B5
:100158008030033AF000803022067002031DB62872
:100168002108FF3C031CBA28FF3087005028BB2811
:1001840020308400013083120313F000C130A30037
:080194000030A400382008002F
:02018200303417
:04400E00F22F000786
:00000001FF
