:0200000076295F
:0E000600213083120313FD00FD0B07280800B4
:06001400000000000800DE
:10001A000F3083120313FC004730FD00FD0B132839
:0A002A00FC0B132800000000080082
:1000340083120313C61B2028871321288717461B06
:100044002528071326280717C61A2A2887122B28BB
:100054008716461A2F280712302807163E18342808
:1000640007153528071187150A208711C6193C285A
:1000740087133D2887174619412807134228071775
:10008400C618462887124728871646184B28071291
:100094004C2807163E1850280715512807118715B4
:1000A4000A2087113E1C58280D20592803200800D7
:1000B40083120313FB01FA01F9018030F800F10CFB
:1000C400F00C031C6E287408F90775080318750FE3
:1000D400FA070318FB0A0310F01F76287408FA07BE
:1000E40075080318750FFB07FB0CFA0CF90CF80CD8
:1000F400031C61287B08F3007A08F2007908F100F8
:060104007808F00008007D
:0E010A008312031340088A003F088200080099
:10011800831203133E104508C6001A203E14080037
:10012800831603131208013EF000F1010318F10AC7
:1001380083124108F400F5015A200630F2007008D5
:10014800F4007108F50072080319AF28F50CF40CD7
:10015800F513FF3EA8280430F1007408F000710878
:100168000319BA28F00D7010FF3EB428303070051E
:10017800F3007408F0007508F100F10CF00CF113AD
:10018800F10CF00CF11370089B000F309D057308FB
:040198009D040800BA
:10019C00E028803083120313C100F328C030C10063
:1001AC00F3289430C100F328D430C100F3288030F8
:1001BC00C100F328831203134108013A0319CF2815
:1001CC004108023A0319D4284108033A0319D728E5
:1001DC004108043A0319DA28DD284203F0004108EB
:1001EC00F0077008C1007008C6001A203E10C40148
:1001FC00440843078400000803190C2944084307EA
:10020C0084000008C5008C20C40AFE283E14080097
:10021C00831603138711071107128712071387130D
:10022C0083128711071187130713871207120D20EA
:10023C000D200D208716071687150A2087110D2013
:10024C0087150A2087110D2087150A2087110D208C
:10025C00071287150A2087110D2087150A20871190
:10026C008712871787150A2087110D208713071609
:10027C0087150A208711071287150A2087110D2070
:10028C0087150A208711071687150A2087110D205C
:10029C00071287150A208711871707178716071665
:0C02AC0087150A2087110D203E14080061
:0C02B800831203139B011D129D1208000D
:1002C40085208A110A128000840ABF0A0319C00A11
:0802D400F003031D622908007C
:1002DC00831603138710831212150C309D0408002B
:1002EC00373083120313A0003530A1002530A20053
:1002FC002030A3004430A4007530A5007430A60053
:10030C007930A7002030A8004330A9007930AA002A
:10031C006330AB006C30AC006530AD00AE013230F8
:10032C00AF003530B0002530B1002030B200443081
:10033C00B3007530B4007430B5007930B60020309D
:10034C00B7004330B8007930B9006330BA006C3074
:10035C00BB006530BC00BD018316870183121214EB
:10036C0092106330831692005C216E210E210130B5
:10037C00C6001A200C30C6001A200130C100013012
:10038C00C2002F30C300CE203F30C1009420033078
:10039C00FB000830FC007730FD00FD0BD329FC0B73
:1003AC00D329FB0BD3290130C1000130C20020300E
:1003BC00C300CE20C030C10094200330FB000830B5
:1003CC00FC007730FD00FD0BE929FC0BE929FB0B48
:0603DC00E929C329F02904
:04400E00F22F000786
:00000001FF
